{"contracts/PhemeVerification.sol":{"PhemeVerification":{"abi":[{"inputs":[],"stateMutability":"nonpayable","type":"constructor"},{"inputs":[],"name":"DuplicateVerification","type":"error"},{"inputs":[],"name":"EmptySkillId","type":"error"},{"inputs":[],"name":"InvalidAddress","type":"error"},{"inputs":[],"name":"NotVerifier","type":"error"},{"inputs":[],"name":"SkillIdTooLong","type":"error"},{"anonymous":false,"inputs":[{"indexed":true,"internalType":"address","name":"previousOwner","type":"address"},{"indexed":true,"internalType":"address","name":"newOwner","type":"address"}],"name":"OwnershipTransferred","type":"event"},{"anonymous":false,"inputs":[{"indexed":true,"internalType":"address","name":"user","type":"address"},{"indexed":false,"internalType":"uint256","name":"skillId","type":"uint256"},{"indexed":false,"internalType":"bytes","name":"verificationData","type":"bytes"},{"indexed":false,"internalType":"uint256","name":"blockNumber","type":"uint256"}],"name":"VerificationCreated","type":"event"},{"anonymous":false,"inputs":[{"indexed":true,"internalType":"address","name":"verifier","type":"address"}],"name":"VerifierAdded","type":"event"},{"anonymous":false,"inputs":[{"indexed":true,"internalType":"address","name":"verifier","type":"address"}],"name":"VerifierRemoved","type":"event"},{"inputs":[],"name":"MAX_SKILL_ID_LENGTH","outputs":[{"internalType":"uint256","name":"","type":"uint256"}],"stateMutability":"view","type":"function"},{"inputs":[{"internalType":"address","name":"verifier","type":"address"}],"name":"addVerifier","outputs":[],"stateMutability":"nonpayable","type":"function"},{"inputs":[{"internalType":"address","name":"user","type":"address"},{"internalType":"uint256","name":"skillId","type":"uint256"}],"name":"getVerification","outputs":[{"components":[{"internalType":"address","name":"verifier","type":"address"},{"internalType":"bytes","name":"data","type":"bytes"},{"internalType":"uint256","name":"blockNumber","type":"uint256"}],"internalType":"struct PhemeVerification.Verification","name":"","type":"tuple"}],"stateMutability":"view","type":"function"},{"inputs":[{"internalType":"address","name":"","type":"address"}],"name":"isVerifier","outputs":[{"internalType":"bool","name":"","type":"bool"}],"stateMutability":"view","type":"function"},{"inputs":[],"name":"owner","outputs":[{"internalType":"address","name":"","type":"address"}],"stateMutability":"view","type":"function"},{"inputs":[{"internalType":"address","name":"verifier","type":"address"}],"name":"removeVerifier","outputs":[],"stateMutability":"nonpayable","type":"function"},{"inputs":[],"name":"renounceOwnership","outputs":[],"stateMutability":"nonpayable","type":"function"},{"inputs":[{"internalType":"address","name":"newOwner","type":"address"}],"name":"transferOwnership","outputs":[],"stateMutability":"nonpayable","type":"function"},{"inputs":[{"internalType":"address","name":"","type":"address"},{"internalType":"uint256","name":"","type":"uint256"}],"name":"verifications","outputs":[{"internalType":"address","name":"verifier","type":"address"},{"internalType":"bytes","name":"data","type":"bytes"},{"internalType":"uint256","name":"blockNumber","type":"uint256"}],"stateMutability":"view","type":"function"},{"inputs":[{"internalType":"address","name":"user","type":"address"},{"internalType":"uint256","name":"skillId","type":"uint256"},{"internalType":"bytes","name":"verificationData","type":"bytes"}],"name":"verifySkill","outputs":[],"stateMutability":"nonpayable","type":"function"}],"evm":{"bytecode":{"linkReferences":{},"object":"60808060405234610028576100133361002d565b61001c3361002d565b61099b90816100758239f35b600080fd5b600080546001600160a01b039283166001600160a01b03198216811783559216907f8be0079c531659141344cd1fd0a4f28419497f9722a3daafe3b4186f6b6457e09080a356fe6080604081815260048036101561001557600080fd5b600092833560e01c9081633310521814610743575080633fc06d141461044d57806346db089d146103da5780636b004399146103be578063715018a6146103615780638da5cb5b146103395780639000b3d6146102a8578063ca2dfd0a1461020b578063f059dc04146101565763f2fde38b1461009157600080fd5b34610152576020366003190112610152576100aa61077e565b906100b361090d565b6001600160a01b0391821692831561010057505082546001600160a01b0319811683178455167f8be0079c531659141344cd1fd0a4f28419497f9722a3daafe3b4186f6b6457e08380a380f35b906020608492519162461bcd60e51b8352820152602660248201527f4f776e61626c653a206e6577206f776e657220697320746865207a65726f206160448201526564647265737360d01b6064820152fd5b8280fd5b50503461020757806003193601126102075761017061077e565b916101fc8280519261018184610799565b8084528082602095606087820152015260018060a01b0380961681526002845281812060243582528452209260608151946101bb86610799565b86815416865260026101cf60018301610827565b918688019283520154948387019586528351978897828952511690870152519185015260808401906108cd565b905160608301520390f35b5080fd5b5090346101525760203660031901126101525761022661077e565b61022e61090d565b6001600160a01b031691821561029a57828452600160205260ff82852054161561028c575081835260016020528220805460ff191690557f44a3cd4eb5cc5748f6169df057b1cb2ae4c383e87cd94663c430e095d4cba4248280a280f35b90516312331aab60e11b8152fd5b905163e6c4247b60e01b8152fd5b509034610152576020366003190112610152576102c361077e565b6102cb61090d565b6001600160a01b031691821561029a57828452600160205260ff828520541661032b575081835260016020528220600160ff198254161790557f6d05492139c5ea989514a5d2150c028041e5c087e2a39967f67dc7d2655adb818280a280f35b9051631611f68760e31b8152fd5b505034610207578160031936011261020757905490516001600160a01b039091168152602090f35b83346103bb57806003193601126103bb5761037a61090d565b80546001600160a01b03198116825581906001600160a01b03167f8be0079c531659141344cd1fd0a4f28419497f9722a3daafe3b4186f6b6457e08280a380f35b80fd5b5050346102075781600319360112610207576020905160648152f35b5050346102075780600319360112610207576001600160a01b039181908361040061077e565b16815260026020528181206024358252602052209182541690600261042760018501610827565b930154610445825194859485526060602086015260608501906108cd565b918301520390f35b50346101525760603660031901126101525761046761077e565b91602435906044359267ffffffffffffffff80851161073f573660238601121561073f57848201359181831161072c5783519288602097601f19926104b38a85601f84011601886107cb565b8087523660248284010111610152578060248b9301838901378601015233895260019182885260ff868b2054161561071e576001600160a01b0398891698891561070f57871561070057606488116106f1579288928b95928b958980519861051a8a610799565b338a528c888b01988c8a52838c019a438c5283526002815283832091835252209751166bffffffffffffffffffffffff60a01b88541617875582870194519081519485116106de57508c8b61056f87546107ed565b91601f8311610696575b915050508c8b92601f8611600114610609575093807f9f55bc216eceb6d8434332df2c9924aafb2b559f716b80f59e460f8460da18fb9c9b9a9997946105f29997948294600298946105fe575b50501b916000199060031b1c19161790555b5191015560608351958695865285015260608401906108cd565b9043908301520390a280f35b0151925038806105c6565b85949593929193168684528c8420935b8181106106815750926002959285927f9f55bc216eceb6d8434332df2c9924aafb2b559f716b80f59e460f8460da18fb9e9d9c9b99966105f29b999610610668575b505050811b0190556105d8565b015160001960f88460031b161c1916905538808061065b565b82840151855593860193928d01928d01610619565b87815220601f860160051c8101918d87106106d4575b601f0160051c019084908f5b8382106106c95790508d9150610579565b81550184908f6106b8565b90915081906106ac565b634e487b7160e01b8e526041905260248dfd5b50855163bcc235e960e01b8152fd5b5085516318f975c160e21b8152fd5b50855163e6c4247b60e01b8152fd5b85516312331aab60e11b8152fd5b634e487b7160e01b885260419052602487fd5b8680fd5b849084346101525760203660031901126101525760209260ff91906001600160a01b0361076e61077e565b1681526001855220541615158152f35b600435906001600160a01b038216820361079457565b600080fd5b6060810190811067ffffffffffffffff8211176107b557604052565b634e487b7160e01b600052604160045260246000fd5b90601f8019910116810190811067ffffffffffffffff8211176107b557604052565b90600182811c9216801561081d575b602083101461080757565b634e487b7160e01b600052602260045260246000fd5b91607f16916107fc565b906040519182600082549261083b846107ed565b9081845260019485811690816000146108aa5750600114610867575b5050610865925003836107cb565b565b9093915060005260209081600020936000915b81831061089257505061086593508201013880610857565b8554888401850152948501948794509183019161087a565b91505061086594506020925060ff191682840152151560051b8201013880610857565b919082519283825260005b8481106108f9575050826000602080949584010152601f8019910116010190565b6020818301810151848301820152016108d8565b6000546001600160a01b0316330361092157565b606460405162461bcd60e51b815260206004820152602060248201527f4f776e61626c653a2063616c6c6572206973206e6f7420746865206f776e65726044820152fdfea26469706673582212206e39696f9144dd8d8cc00e70fdf9617f5487b57ff0f83c0ecc3ef752d30b046464736f6c63430008140033","opcodes":"PUSH1 0x80 DUP1 PUSH1 0x40 MSTORE CALLVALUE PUSH2 0x28 JUMPI PUSH2 0x13 CALLER PUSH2 0x2D JUMP JUMPDEST PUSH2 0x1C CALLER PUSH2 0x2D JUMP JUMPDEST PUSH2 0x99B SWAP1 DUP2 PUSH2 0x75 DUP3 CODECOPY RETURN JUMPDEST PUSH1 0x0 DUP1 REVERT JUMPDEST PUSH1 0x0 DUP1 SLOAD PUSH1 0x1 PUSH1 0x1 PUSH1 0xA0 SHL SUB SWAP3 DUP4 AND PUSH1 0x1 PUSH1 0x1 PUSH1 0xA0 SHL SUB NOT DUP3 AND DUP2 OR DUP4 SSTORE SWAP3 AND SWAP1 PUSH32 0x8BE0079C531659141344CD1FD0A4F28419497F9722A3DAAFE3B4186F6B6457E0 SWAP1 DUP1 LOG3 JUMP INVALID PUSH1 0x80 PUSH1 0x40 DUP2 DUP2 MSTORE PUSH1 0x4 DUP1 CALLDATASIZE LT ISZERO PUSH2 0x15 JUMPI PUSH1 0x0 DUP1 REVERT JUMPDEST PUSH1 0x0 SWAP3 DUP4 CALLDATALOAD PUSH1 0xE0 SHR SWAP1 DUP2 PUSH4 0x33105218 EQ PUSH2 0x743 JUMPI POP DUP1 PUSH4 0x3FC06D14 EQ PUSH2 0x44D JUMPI DUP1 PUSH4 0x46DB089D EQ PUSH2 0x3DA JUMPI DUP1 PUSH4 0x6B004399 EQ PUSH2 0x3BE JUMPI DUP1 PUSH4 0x715018A6 EQ PUSH2 0x361 JUMPI DUP1 PUSH4 0x8DA5CB5B EQ PUSH2 0x339 JUMPI DUP1 PUSH4 0x9000B3D6 EQ PUSH2 0x2A8 JUMPI DUP1 PUSH4 0xCA2DFD0A EQ PUSH2 0x20B JUMPI DUP1 PUSH4 0xF059DC04 EQ PUSH2 0x156 JUMPI PUSH4 0xF2FDE38B EQ PUSH2 0x91 JUMPI PUSH1 0x0 DUP1 REVERT JUMPDEST CALLVALUE PUSH2 0x152 JUMPI PUSH1 0x20 CALLDATASIZE PUSH1 0x3 NOT ADD SLT PUSH2 0x152 JUMPI PUSH2 0xAA PUSH2 0x77E JUMP JUMPDEST SWAP1 PUSH2 0xB3 PUSH2 0x90D JUMP JUMPDEST PUSH1 0x1 PUSH1 0x1 PUSH1 0xA0 SHL SUB SWAP2 DUP3 AND SWAP3 DUP4 ISZERO PUSH2 0x100 JUMPI POP POP DUP3 SLOAD PUSH1 0x1 PUSH1 0x1 PUSH1 0xA0 SHL SUB NOT DUP2 AND DUP4 OR DUP5 SSTORE AND PUSH32 0x8BE0079C531659141344CD1FD0A4F28419497F9722A3DAAFE3B4186F6B6457E0 DUP4 DUP1 LOG3 DUP1 RETURN JUMPDEST SWAP1 PUSH1 0x20 PUSH1 0x84 SWAP3 MLOAD SWAP2 PUSH3 0x461BCD PUSH1 0xE5 SHL DUP4 MSTORE DUP3 ADD MSTORE PUSH1 0x26 PUSH1 0x24 DUP3 ADD MSTORE PUSH32 0x4F776E61626C653A206E6577206F776E657220697320746865207A65726F2061 PUSH1 0x44 DUP3 ADD MSTORE PUSH6 0x646472657373 PUSH1 0xD0 SHL PUSH1 0x64 DUP3 ADD MSTORE REVERT JUMPDEST DUP3 DUP1 REVERT JUMPDEST POP POP CALLVALUE PUSH2 0x207 JUMPI DUP1 PUSH1 0x3 NOT CALLDATASIZE ADD SLT PUSH2 0x207 JUMPI PUSH2 0x170 PUSH2 0x77E JUMP JUMPDEST SWAP2 PUSH2 0x1FC DUP3 DUP1 MLOAD SWAP3 PUSH2 0x181 DUP5 PUSH2 0x799 JUMP JUMPDEST DUP1 DUP5 MSTORE DUP1 DUP3 PUSH1 0x20 SWAP6 PUSH1 0x60 DUP8 DUP3 ADD MSTORE ADD MSTORE PUSH1 0x1 DUP1 PUSH1 0xA0 SHL SUB DUP1 SWAP7 AND DUP2 MSTORE PUSH1 0x2 DUP5 MSTORE DUP2 DUP2 KECCAK256 PUSH1 0x24 CALLDATALOAD DUP3 MSTORE DUP5 MSTORE KECCAK256 SWAP3 PUSH1 0x60 DUP2 MLOAD SWAP5 PUSH2 0x1BB DUP7 PUSH2 0x799 JUMP JUMPDEST DUP7 DUP2 SLOAD AND DUP7 MSTORE PUSH1 0x2 PUSH2 0x1CF PUSH1 0x1 DUP4 ADD PUSH2 0x827 JUMP JUMPDEST SWAP2 DUP7 DUP9 ADD SWAP3 DUP4 MSTORE ADD SLOAD SWAP5 DUP4 DUP8 ADD SWAP6 DUP7 MSTORE DUP4 MLOAD SWAP8 DUP9 SWAP8 DUP3 DUP10 MSTORE MLOAD AND SWAP1 DUP8 ADD MSTORE MLOAD SWAP2 DUP6 ADD MSTORE PUSH1 0x80 DUP5 ADD SWAP1 PUSH2 0x8CD JUMP JUMPDEST SWAP1 MLOAD PUSH1 0x60 DUP4 ADD MSTORE SUB SWAP1 RETURN JUMPDEST POP DUP1 REVERT JUMPDEST POP SWAP1 CALLVALUE PUSH2 0x152 JUMPI PUSH1 0x20 CALLDATASIZE PUSH1 0x3 NOT ADD SLT PUSH2 0x152 JUMPI PUSH2 0x226 PUSH2 0x77E JUMP JUMPDEST PUSH2 0x22E PUSH2 0x90D JUMP JUMPDEST PUSH1 0x1 PUSH1 0x1 PUSH1 0xA0 SHL SUB AND SWAP2 DUP3 ISZERO PUSH2 0x29A JUMPI DUP3 DUP5 MSTORE PUSH1 0x1 PUSH1 0x20 MSTORE PUSH1 0xFF DUP3 DUP6 KECCAK256 SLOAD AND ISZERO PUSH2 0x28C JUMPI POP DUP2 DUP4 MSTORE PUSH1 0x1 PUSH1 0x20 MSTORE DUP3 KECCAK256 DUP1 SLOAD PUSH1 0xFF NOT AND SWAP1 SSTORE PUSH32 0x44A3CD4EB5CC5748F6169DF057B1CB2AE4C383E87CD94663C430E095D4CBA424 DUP3 DUP1 LOG2 DUP1 RETURN JUMPDEST SWAP1 MLOAD PUSH4 0x12331AAB PUSH1 0xE1 SHL DUP2 MSTORE REVERT JUMPDEST SWAP1 MLOAD PUSH4 0xE6C4247B PUSH1 0xE0 SHL DUP2 MSTORE REVERT JUMPDEST POP SWAP1 CALLVALUE PUSH2 0x152 JUMPI PUSH1 0x20 CALLDATASIZE PUSH1 0x3 NOT ADD SLT PUSH2 0x152 JUMPI PUSH2 0x2C3 PUSH2 0x77E JUMP JUMPDEST PUSH2 0x2CB PUSH2 0x90D JUMP JUMPDEST PUSH1 0x1 PUSH1 0x1 PUSH1 0xA0 SHL SUB AND SWAP2 DUP3 ISZERO PUSH2 0x29A JUMPI DUP3 DUP5 MSTORE PUSH1 0x1 PUSH1 0x20 MSTORE PUSH1 0xFF DUP3 DUP6 KECCAK256 SLOAD AND PUSH2 0x32B JUMPI POP DUP2 DUP4 MSTORE PUSH1 0x1 PUSH1 0x20 MSTORE DUP3 KECCAK256 PUSH1 0x1 PUSH1 0xFF NOT DUP3 SLOAD AND OR SWAP1 SSTORE PUSH32 0x6D05492139C5EA989514A5D2150C028041E5C087E2A39967F67DC7D2655ADB81 DUP3 DUP1 LOG2 DUP1 RETURN JUMPDEST SWAP1 MLOAD PUSH4 0x1611F687 PUSH1 0xE3 SHL DUP2 MSTORE REVERT JUMPDEST POP POP CALLVALUE PUSH2 0x207 JUMPI DUP2 PUSH1 0x3 NOT CALLDATASIZE ADD SLT PUSH2 0x207 JUMPI SWAP1 SLOAD SWAP1 MLOAD PUSH1 0x1 PUSH1 0x1 PUSH1 0xA0 SHL SUB SWAP1 SWAP2 AND DUP2 MSTORE PUSH1 0x20 SWAP1 RETURN JUMPDEST DUP4 CALLVALUE PUSH2 0x3BB JUMPI DUP1 PUSH1 0x3 NOT CALLDATASIZE ADD SLT PUSH2 0x3BB JUMPI PUSH2 0x37A PUSH2 0x90D JUMP JUMPDEST DUP1 SLOAD PUSH1 0x1 PUSH1 0x1 PUSH1 0xA0 SHL SUB NOT DUP2 AND DUP3 SSTORE DUP2 SWAP1 PUSH1 0x1 PUSH1 0x1 PUSH1 0xA0 SHL SUB AND PUSH32 0x8BE0079C531659141344CD1FD0A4F28419497F9722A3DAAFE3B4186F6B6457E0 DUP3 DUP1 LOG3 DUP1 RETURN JUMPDEST DUP1 REVERT JUMPDEST POP POP CALLVALUE PUSH2 0x207 JUMPI DUP2 PUSH1 0x3 NOT CALLDATASIZE ADD SLT PUSH2 0x207 JUMPI PUSH1 0x20 SWAP1 MLOAD PUSH1 0x64 DUP2 MSTORE RETURN JUMPDEST POP POP CALLVALUE PUSH2 0x207 JUMPI DUP1 PUSH1 0x3 NOT CALLDATASIZE ADD SLT PUSH2 0x207 JUMPI PUSH1 0x1 PUSH1 0x1 PUSH1 0xA0 SHL SUB SWAP2 DUP2 SWAP1 DUP4 PUSH2 0x400 PUSH2 0x77E JUMP JUMPDEST AND DUP2 MSTORE PUSH1 0x2 PUSH1 0x20 MSTORE DUP2 DUP2 KECCAK256 PUSH1 0x24 CALLDATALOAD DUP3 MSTORE PUSH1 0x20 MSTORE KECCAK256 SWAP2 DUP3 SLOAD AND SWAP1 PUSH1 0x2 PUSH2 0x427 PUSH1 0x1 DUP6 ADD PUSH2 0x827 JUMP JUMPDEST SWAP4 ADD SLOAD PUSH2 0x445 DUP3 MLOAD SWAP5 DUP6 SWAP5 DUP6 MSTORE PUSH1 0x60 PUSH1 0x20 DUP7 ADD MSTORE PUSH1 0x60 DUP6 ADD SWAP1 PUSH2 0x8CD JUMP JUMPDEST SWAP2 DUP4 ADD MSTORE SUB SWAP1 RETURN JUMPDEST POP CALLVALUE PUSH2 0x152 JUMPI PUSH1 0x60 CALLDATASIZE PUSH1 0x3 NOT ADD SLT PUSH2 0x152 JUMPI PUSH2 0x467 PUSH2 0x77E JUMP JUMPDEST SWAP2 PUSH1 0x24 CALLDATALOAD SWAP1 PUSH1 0x44 CALLDATALOAD SWAP3 PUSH8 0xFFFFFFFFFFFFFFFF DUP1 DUP6 GT PUSH2 0x73F JUMPI CALLDATASIZE PUSH1 0x23 DUP7 ADD SLT ISZERO PUSH2 0x73F JUMPI DUP5 DUP3 ADD CALLDATALOAD SWAP2 DUP2 DUP4 GT PUSH2 0x72C JUMPI DUP4 MLOAD SWAP3 DUP9 PUSH1 0x20 SWAP8 PUSH1 0x1F NOT SWAP3 PUSH2 0x4B3 DUP11 DUP6 PUSH1 0x1F DUP5 ADD AND ADD DUP9 PUSH2 0x7CB JUMP JUMPDEST DUP1 DUP8 MSTORE CALLDATASIZE PUSH1 0x24 DUP3 DUP5 ADD ADD GT PUSH2 0x152 JUMPI DUP1 PUSH1 0x24 DUP12 SWAP4 ADD DUP4 DUP10 ADD CALLDATACOPY DUP7 ADD ADD MSTORE CALLER DUP10 MSTORE PUSH1 0x1 SWAP2 DUP3 DUP9 MSTORE PUSH1 0xFF DUP7 DUP12 KECCAK256 SLOAD AND ISZERO PUSH2 0x71E JUMPI PUSH1 0x1 PUSH1 0x1 PUSH1 0xA0 SHL SUB SWAP9 DUP10 AND SWAP9 DUP10 ISZERO PUSH2 0x70F JUMPI DUP8 ISZERO PUSH2 0x700 JUMPI PUSH1 0x64 DUP9 GT PUSH2 0x6F1 JUMPI SWAP3 DUP9 SWAP3 DUP12 SWAP6 SWAP3 DUP12 SWAP6 DUP10 DUP1 MLOAD SWAP9 PUSH2 0x51A DUP11 PUSH2 0x799 JUMP JUMPDEST CALLER DUP11 MSTORE DUP13 DUP9 DUP12 ADD SWAP9 DUP13 DUP11 MSTORE DUP4 DUP13 ADD SWAP11 NUMBER DUP13 MSTORE DUP4 MSTORE PUSH1 0x2 DUP2 MSTORE DUP4 DUP4 KECCAK256 SWAP2 DUP4 MSTORE MSTORE KECCAK256 SWAP8 MLOAD AND PUSH12 0xFFFFFFFFFFFFFFFFFFFFFFFF PUSH1 0xA0 SHL DUP9 SLOAD AND OR DUP8 SSTORE DUP3 DUP8 ADD SWAP5 MLOAD SWAP1 DUP2 MLOAD SWAP5 DUP6 GT PUSH2 0x6DE JUMPI POP DUP13 DUP12 PUSH2 0x56F DUP8 SLOAD PUSH2 0x7ED JUMP JUMPDEST SWAP2 PUSH1 0x1F DUP4 GT PUSH2 0x696 JUMPI JUMPDEST SWAP2 POP POP POP DUP13 DUP12 SWAP3 PUSH1 0x1F DUP7 GT PUSH1 0x1 EQ PUSH2 0x609 JUMPI POP SWAP4 DUP1 PUSH32 0x9F55BC216ECEB6D8434332DF2C9924AAFB2B559F716B80F59E460F8460DA18FB SWAP13 SWAP12 SWAP11 SWAP10 SWAP8 SWAP5 PUSH2 0x5F2 SWAP10 SWAP8 SWAP5 DUP3 SWAP5 PUSH1 0x2 SWAP9 SWAP5 PUSH2 0x5FE JUMPI JUMPDEST POP POP SHL SWAP2 PUSH1 0x0 NOT SWAP1 PUSH1 0x3 SHL SHR NOT AND OR SWAP1 SSTORE JUMPDEST MLOAD SWAP2 ADD SSTORE PUSH1 0x60 DUP4 MLOAD SWAP6 DUP7 SWAP6 DUP7 MSTORE DUP6 ADD MSTORE PUSH1 0x60 DUP5 ADD SWAP1 PUSH2 0x8CD JUMP JUMPDEST SWAP1 NUMBER SWAP1 DUP4 ADD MSTORE SUB SWAP1 LOG2 DUP1 RETURN JUMPDEST ADD MLOAD SWAP3 POP CODESIZE DUP1 PUSH2 0x5C6 JUMP JUMPDEST DUP6 SWAP5 SWAP6 SWAP4 SWAP3 SWAP2 SWAP4 AND DUP7 DUP5 MSTORE DUP13 DUP5 KECCAK256 SWAP4 JUMPDEST DUP2 DUP2 LT PUSH2 0x681 JUMPI POP SWAP3 PUSH1 0x2 SWAP6 SWAP3 DUP6 SWAP3 PUSH32 0x9F55BC216ECEB6D8434332DF2C9924AAFB2B559F716B80F59E460F8460DA18FB SWAP15 SWAP14 SWAP13 SWAP12 SWAP10 SWAP7 PUSH2 0x5F2 SWAP12 SWAP10 SWAP7 LT PUSH2 0x668 JUMPI JUMPDEST POP POP POP DUP2 SHL ADD SWAP1 SSTORE PUSH2 0x5D8 JUMP JUMPDEST ADD MLOAD PUSH1 0x0 NOT PUSH1 0xF8 DUP5 PUSH1 0x3 SHL AND SHR NOT AND SWAP1 SSTORE CODESIZE DUP1 DUP1 PUSH2 0x65B JUMP JUMPDEST DUP3 DUP5 ADD MLOAD DUP6 SSTORE SWAP4 DUP7 ADD SWAP4 SWAP3 DUP14 ADD SWAP3 DUP14 ADD PUSH2 0x619 JUMP JUMPDEST DUP8 DUP2 MSTORE KECCAK256 PUSH1 0x1F DUP7 ADD PUSH1 0x5 SHR DUP2 ADD SWAP2 DUP14 DUP8 LT PUSH2 0x6D4 JUMPI JUMPDEST PUSH1 0x1F ADD PUSH1 0x5 SHR ADD SWAP1 DUP5 SWAP1 DUP16 JUMPDEST DUP4 DUP3 LT PUSH2 0x6C9 JUMPI SWAP1 POP DUP14 SWAP2 POP PUSH2 0x579 JUMP JUMPDEST DUP2 SSTORE ADD DUP5 SWAP1 DUP16 PUSH2 0x6B8 JUMP JUMPDEST SWAP1 SWAP2 POP DUP2 SWAP1 PUSH2 0x6AC JUMP JUMPDEST PUSH4 0x4E487B71 PUSH1 0xE0 SHL DUP15 MSTORE PUSH1 0x41 SWAP1 MSTORE PUSH1 0x24 DUP14 REVERT JUMPDEST POP DUP6 MLOAD PUSH4 0xBCC235E9 PUSH1 0xE0 SHL DUP2 MSTORE REVERT JUMPDEST POP DUP6 MLOAD PUSH4 0x18F975C1 PUSH1 0xE2 SHL DUP2 MSTORE REVERT JUMPDEST POP DUP6 MLOAD PUSH4 0xE6C4247B PUSH1 0xE0 SHL DUP2 MSTORE REVERT JUMPDEST DUP6 MLOAD PUSH4 0x12331AAB PUSH1 0xE1 SHL DUP2 MSTORE REVERT JUMPDEST PUSH4 0x4E487B71 PUSH1 0xE0 SHL DUP9 MSTORE PUSH1 0x41 SWAP1 MSTORE PUSH1 0x24 DUP8 REVERT JUMPDEST DUP7 DUP1 REVERT JUMPDEST DUP5 SWAP1 DUP5 CALLVALUE PUSH2 0x152 JUMPI PUSH1 0x20 CALLDATASIZE PUSH1 0x3 NOT ADD SLT PUSH2 0x152 JUMPI PUSH1 0x20 SWAP3 PUSH1 0xFF SWAP2 SWAP1 PUSH1 0x1 PUSH1 0x1 PUSH1 0xA0 SHL SUB PUSH2 0x76E PUSH2 0x77E JUMP JUMPDEST AND DUP2 MSTORE PUSH1 0x1 DUP6 MSTORE KECCAK256 SLOAD AND ISZERO ISZERO DUP2 MSTORE RETURN JUMPDEST PUSH1 0x4 CALLDATALOAD SWAP1 PUSH1 0x1 PUSH1 0x1 PUSH1 0xA0 SHL SUB DUP3 AND DUP3 SUB PUSH2 0x794 JUMPI JUMP JUMPDEST PUSH1 0x0 DUP1 REVERT JUMPDEST PUSH1 0x60 DUP2 ADD SWAP1 DUP2 LT PUSH8 0xFFFFFFFFFFFFFFFF DUP3 GT OR PUSH2 0x7B5 JUMPI PUSH1 0x40 MSTORE JUMP JUMPDEST PUSH4 0x4E487B71 PUSH1 0xE0 SHL PUSH1 0x0 MSTORE PUSH1 0x41 PUSH1 0x4 MSTORE PUSH1 0x24 PUSH1 0x0 REVERT JUMPDEST SWAP1 PUSH1 0x1F DUP1 NOT SWAP2 ADD AND DUP2 ADD SWAP1 DUP2 LT PUSH8 0xFFFFFFFFFFFFFFFF DUP3 GT OR PUSH2 0x7B5 JUMPI PUSH1 0x40 MSTORE JUMP JUMPDEST SWAP1 PUSH1 0x1 DUP3 DUP2 SHR SWAP3 AND DUP1 ISZERO PUSH2 0x81D JUMPI JUMPDEST PUSH1 0x20 DUP4 LT EQ PUSH2 0x807 JUMPI JUMP JUMPDEST PUSH4 0x4E487B71 PUSH1 0xE0 SHL PUSH1 0x0 MSTORE PUSH1 0x22 PUSH1 0x4 MSTORE PUSH1 0x24 PUSH1 0x0 REVERT JUMPDEST SWAP2 PUSH1 0x7F AND SWAP2 PUSH2 0x7FC JUMP JUMPDEST SWAP1 PUSH1 0x40 MLOAD SWAP2 DUP3 PUSH1 0x0 DUP3 SLOAD SWAP3 PUSH2 0x83B DUP5 PUSH2 0x7ED JUMP JUMPDEST SWAP1 DUP2 DUP5 MSTORE PUSH1 0x1 SWAP5 DUP6 DUP2 AND SWAP1 DUP2 PUSH1 0x0 EQ PUSH2 0x8AA JUMPI POP PUSH1 0x1 EQ PUSH2 0x867 JUMPI JUMPDEST POP POP PUSH2 0x865 SWAP3 POP SUB DUP4 PUSH2 0x7CB JUMP JUMPDEST JUMP JUMPDEST SWAP1 SWAP4 SWAP2 POP PUSH1 0x0 MSTORE PUSH1 0x20 SWAP1 DUP2 PUSH1 0x0 KECCAK256 SWAP4 PUSH1 0x0 SWAP2 JUMPDEST DUP2 DUP4 LT PUSH2 0x892 JUMPI POP POP PUSH2 0x865 SWAP4 POP DUP3 ADD ADD CODESIZE DUP1 PUSH2 0x857 JUMP JUMPDEST DUP6 SLOAD DUP9 DUP5 ADD DUP6 ADD MSTORE SWAP5 DUP6 ADD SWAP5 DUP8 SWAP5 POP SWAP2 DUP4 ADD SWAP2 PUSH2 0x87A JUMP JUMPDEST SWAP2 POP POP PUSH2 0x865 SWAP5 POP PUSH1 0x20 SWAP3 POP PUSH1 0xFF NOT AND DUP3 DUP5 ADD MSTORE ISZERO ISZERO PUSH1 0x5 SHL DUP3 ADD ADD CODESIZE DUP1 PUSH2 0x857 JUMP JUMPDEST SWAP2 SWAP1 DUP3 MLOAD SWAP3 DUP4 DUP3 MSTORE PUSH1 0x0 JUMPDEST DUP5 DUP2 LT PUSH2 0x8F9 JUMPI POP POP DUP3 PUSH1 0x0 PUSH1 0x20 DUP1 SWAP5 SWAP6 DUP5 ADD ADD MSTORE PUSH1 0x1F DUP1 NOT SWAP2 ADD AND ADD ADD SWAP1 JUMP JUMPDEST PUSH1 0x20 DUP2 DUP4 ADD DUP2 ADD MLOAD DUP5 DUP4 ADD DUP3 ADD MSTORE ADD PUSH2 0x8D8 JUMP JUMPDEST PUSH1 0x0 SLOAD PUSH1 0x1 PUSH1 0x1 PUSH1 0xA0 SHL SUB AND CALLER SUB PUSH2 0x921 JUMPI JUMP JUMPDEST PUSH1 0x64 PUSH1 0x40 MLOAD PUSH3 0x461BCD PUSH1 0xE5 SHL DUP2 MSTORE PUSH1 0x20 PUSH1 0x4 DUP3 ADD MSTORE PUSH1 0x20 PUSH1 0x24 DUP3 ADD MSTORE PUSH32 0x4F776E61626C653A2063616C6C6572206973206E6F7420746865206F776E6572 PUSH1 0x44 DUP3 ADD MSTORE REVERT INVALID LOG2 PUSH5 0x6970667358 0x22 SLT KECCAK256 PUSH15 0x39696F9144DD8D8CC00E70FDF9617F SLOAD DUP8 0xB5 PUSH32 0xF0F83C0ECC3EF752D30B046464736F6C63430008140033000000000000000000 "},"methodIdentifiers":{"MAX_SKILL_ID_LENGTH()":"6b004399","addVerifier(address)":"9000b3d6","getVerification(address,uint256)":"f059dc04","isVerifier(address)":"33105218","owner()":"8da5cb5b","removeVerifier(address)":"ca2dfd0a","renounceOwnership()":"715018a6","transferOwnership(address)":"f2fde38b","verifications(address,uint256)":"46db089d","verifySkill(address,uint256,bytes)":"3fc06d14"}}}}}