{
  "_format": "hh-sol-artifact-1",
  "contractName": "PhemeVerification",
  "sourceName": "contracts/PhemeVerification.sol",
  "abi": [
    {
      "inputs": [],
      "stateMutability": "nonpayable",
      "type": "constructor"
    },
    {
      "inputs": [
        {
          "internalType": "address",
          "name": "owner",
          "type": "address"
        }
      ],
      "name": "OwnableInvalidOwner",
      "type": "error"
    },
    {
      "inputs": [
        {
          "internalType": "address",
          "name": "account",
          "type": "address"
        }
      ],
      "name": "OwnableUnauthorizedAccount",
      "type": "error"
    },
    {
      "anonymous": false,
      "inputs": [
        {
          "indexed": true,
          "internalType": "address",
          "name": "previousOwner",
          "type": "address"
        },
        {
          "indexed": true,
          "internalType": "address",
          "name": "newOwner",
          "type": "address"
        }
      ],
      "name": "OwnershipTransferred",
      "type": "event"
    },
    {
      "anonymous": false,
      "inputs": [
        {
          "indexed": true,
          "internalType": "address",
          "name": "user",
          "type": "address"
        },
        {
          "indexed": false,
          "internalType": "string",
          "name": "skillId",
          "type": "string"
        },
        {
          "indexed": false,
          "internalType": "uint256",
          "name": "timestamp",
          "type": "uint256"
        }
      ],
      "name": "VerificationCreated",
      "type": "event"
    },
    {
      "inputs": [
        {
          "internalType": "string",
          "name": "skillId",
          "type": "string"
        }
      ],
      "name": "createVerification",
      "outputs": [],
      "stateMutability": "nonpayable",
      "type": "function"
    },
    {
      "inputs": [],
      "name": "owner",
      "outputs": [
        {
          "internalType": "address",
          "name": "",
          "type": "address"
        }
      ],
      "stateMutability": "view",
      "type": "function"
    },
    {
      "inputs": [],
      "name": "renounceOwnership",
      "outputs": [],
      "stateMutability": "nonpayable",
      "type": "function"
    },
    {
      "inputs": [
        {
          "internalType": "address",
          "name": "newOwner",
          "type": "address"
        }
      ],
      "name": "transferOwnership",
      "outputs": [],
      "stateMutability": "nonpayable",
      "type": "function"
    }
  ],
  "bytecode": "0x608060405234801561001057600080fd5b50338061003757604051631e4fbdf760e01b81526000600482015260240160405180910390fd5b61004081610046565b50610096565b600080546001600160a01b038381166001600160a01b0319831681178455604051919092169283917f8be0079c531659141344cd1fd0a4f28419497f9722a3daafe3b4186f6b6457e09190a35050565b61033c806100a56000396000f3fe608060405234801561001057600080fd5b506004361061004c5760003560e01c806345b7dab214610051578063715018a6146100665780638da5cb5b1461006e578063f2fde38b1461008d575b600080fd5b61006461005f3660046101d0565b6100a0565b005b6100646100e6565b600054604080516001600160a01b039092168252519081900360200190f35b61006461009b366004610281565b6100fa565b336001600160a01b03167f281ff252dcb9f045635e9ffc3de3f79e3b4edee86857016aed8d90206974292d82426040516100db9291906102b1565b60405180910390a250565b6100ee61013d565b6100f8600061016a565b565b61010261013d565b6001600160a01b03811661013157604051631e4fbdf760e01b8152600060048201526024015b60405180910390fd5b61013a8161016a565b50565b6000546001600160a01b031633146100f85760405163118cdaa760e01b8152336004820152602401610128565b600080546001600160a01b038381166001600160a01b0319831681178455604051919092169283917f8be0079c531659141344cd1fd0a4f28419497f9722a3daafe3b4186f6b6457e09190a35050565b634e487b7160e01b600052604160045260246000fd5b6000602082840312156101e257600080fd5b813567ffffffffffffffff808211156101fa57600080fd5b818401915084601f83011261020e57600080fd5b813581811115610220576102206101ba565b604051601f8201601f19908116603f01168101908382118183101715610248576102486101ba565b8160405282815287602084870101111561026157600080fd5b826020860160208301376000928101602001929092525095945050505050565b60006020828403121561029357600080fd5b81356001600160a01b03811681146102aa57600080fd5b9392505050565b604081526000835180604084015260005b818110156102df57602081870181015160608684010152016102c2565b506000606082850101526060601f19601f830116840101915050826020830152939250505056fea26469706673582212208dfd82e79c2430d20f77db9ef8d2667455040929d261137ad7b53f039d7e3b0664736f6c63430008140033",
  "linkReferences": {},
  "deployedLinkReferences": {}
}